S01100004C49435F43565F30312E7372656383
S11300000C9435000C9452000C9452000C94520041
S11300100C9452000C9452000C945A080C94520004
S11300200C9452000C9452000C9452000C94520004
S11300300C9452000C948E060C9452000C94BC0642
S11300400C9452000C9452000C9452000C945200E4
S11300500C945200FF070208050808080B080E0854
S11300601108140817081A081D0811241FBECFE52B
S1130070D8E0DEBFCDBF10E0A0E6B0E0EEE4F2E1F0
S113008002C005900D92A036B107D9F722E0A0E690
S1130090B0E001C01D92A030B207E1F70E94C7088A
S11300A00C9425090C940000CF93C62FBC98880F9C
S11300B08E770E9457028C2F0E945702BC9ACF91D0
S11300C00895BC98880F8E7780680E94570280E05C
S11300D00E945702BC9A08956FE081E00E94540088
S11300E008950E946C006DE88AE20E9454006EE359
S11300F08BE20E9454006EE18CE20E94540060E0A6
S11301008DE20E94540060E485E10E9454006DE396
S113011081E10E94540084E10E946100982F937051
S113012029F4682F636084E10E94540008953F928B
S11301304F925F926F927F928F929F92AF92BF92F3
S1130140CF92DF92EF92FF920F931F93CF93DF939F
S1130150482EE62EF72E842E722E632E8CE048163F
S113016031F0EEE04E1661F0512C312C10C00F2E00
S1130170F0E35F2EF02D0F2EF7E73F2EF02D07C092
S11301806894552454F80F2EF2E13F2EF02D84E0AC
S11301900E946100682F6F7784E00E9454008AE017
S11301A00E946100682F60688AE00E94540060E049
S11301B081E00E945400912CA12CB12C8114910453
S11301C0A104B10499F0CE2DDF2DC12CD12C7601E0
S11301D0699189E00E945400FFEFCF1ADF0AEF0A09
S11301E0FF0AC814D904EA04FB0490F3642D81E0E7
S11301F00E9454008CE0481208C08DE00E94610007
S1130200682F60688DE00E94540084E00E946100C1
S1130210F82EC0E0D0E0E52DE1605E2E0AC084E057
S11302200E946100F82E2196CF3CF7E0DF0709F425
S113023075C08F2D852199F37BC0832D8170F822A1
S113024011F4C1E001C0C2E08CE0481280C08AE031
S11302500E946100882E8CE00E946100282F277084
S1130260E9F0882D90E00197AA2797FDA095BA2F71
S1130270880F991FAA1FBB1F880F991FAA1FBB1F96
S1130280880F991FAA1FBB1F820F911DA11DB11DAD
S1130290F80180839183A283B38315C0482D50E075
S11302A060E070E0440F551F661F771F440F551F11
S11302B0661F771F440F551F661F771FF801408381
S11302C051836283738381100AC0812C912C540161
S11302D08394072D162DC12CD12C76010EC0882DA8
S11302E0813108F080E1882E912CA12CB12C81144D
S11302F09104A104B10469F72AC089E00E94610055
S1130300F80181938F01FFEFCF1ADF0AEF0AFF0A8A
S1130310C814D904EA04FB0480F319C08DE00E94D8
S11303206100682F6F778DE00E945400C3E00FC016
S11303308DE00E946100682F6F778DE00E94540069
S113034086E00E9461008B7109F477CFC3E08C2FA3
S1130350DF91CF911F910F91FF90EF90DF90CF909D
S1130360BF90AF909F908F907F906F905F904F90D1
S11303703F900895EF92FF920F931F93CF93DF93D3
S113038000D000D0CDB7DEB7182F7B0167E08DE039
S11303900E945400F70110838E010F5F1F4F9701D5
S11303A041E0B7018CE00E949700813051F449810B
S11303B05A816B817C81403151056105710519F4C5
S11303C003C083E001C083E00F900F900F900F9063
S11303D0DF91CF911F910F91FF90EF900895EF92CD
S11303E0FF920F931F93CF93DF9300D000D0CDB72C
S11303F0DEB77C0160E08DE00E94540083E9F701E0
S1130400808380E281838E010F5F1F4F970142E05A
S1130410B7018CE00E949700813061F4F70120E07D
S113042090E0319123279F5F9430D9F7F7019481AD
S1130430291383E00F900F900F900F90DF91CF91CD
S11304401F910F91FF90EF9008950F931F93CF93F7
S1130450DF93CDB7DEB760970FB6F894DEBF0FBE5B
S1130460CDBF8C01BE016F5F7F4F86E20E94BA014F
S1130470813061F4898190E0982F88272A81820F46
S1130480911DF8019183808381E001C080E0609632
S11304900FB6F894DEBF0FBECDBFDF91CF911F9191
S11304A00F91089580EB87BB81E58DB908958FB9CD
S11304B0779BFECF8EB108951BBC1ABC19BC18BC27
S11304C08FE392E097BD86BD82EA8FBD8CE18EBD3D
S11304D089B7806289BF0895E0916200F09163005A
S11304E0309709F009950895E3E9F0E08BE990E08D
S11304F020E03191230FE817F907D9F720939B00E7
S11305000895CF93DF93EC019093AD008093AC00FA
S113051045E050E0BC018CE990E00E94ED08809138
S11305209C008234A9F082E480939C0084E0809350
S11305309D0086E080939E0010929F0082E080934D
S1130540A00045E050E0BE018CE990E00E940E0955
S1130550E0916000F0916100309719F080919D0066
S113056009958091A0008093AE0080919E008093B5
S1130570A200DF91CF9108959091AE0090939300E3
S11305809091A20090939400809395008091A40090
S1130590809396007093970060939800509399000D
S11305A040939A000E9474020E946C0208959091F4
S11305B0A3008091A200981316C0E3EAF0E08BEA4E
S11305C090E020E03191230FE817F907D9F78091E3
S11305D0AB00281751F040E050E0BA0181E00E94DE
S11305E0BC0283E0089582E0089580E008950F93AB
S11305F01F93CF93DF931F92CDB7DEB72091A7004F
S11306006091A800862F90E0A0E0B0E0DC0199277B
S11306108827B22B2091AA00822B2091A900BC012B
S1130620CD01722B60938F007093900080939100A2
S1130630909392002091A4002A3009F486C288F491
S1130640243009F4FCC228F4213019F1223049F194
S1130650EEC2263009F476C060F1293009F4D3C122
S1130660E6C2203109F4C9C148F42E3009F4ECC0C3
S113067008F04FC12D3009F4C4C1D9C2283809F497
S1130680ADC22E3F21F0213109F0D1C2B8C18EEFA5
S1130690DBC240E050E0BA0184E60E94BC0281E083
S11306A0D3C240E050E0BA0184E60E94BC0282E07A
S11306B0CBC22091A600222341F040E050E0BA01D1
S11306C084E00E94BC0280E0BFC22091A5002630D5
S11306D0E9F028F4243041F0253079F02BC027309C
S11306E0F1F02C3829F126C060937A0070937B00D6
S11306F080937C0090937D001DC060937E00709376
S11307007F00809380009093810014C060938200E6
S11307107093830080938400909385000BC0609352
S1130720860070938700809388009093890002C0AC
S113073060938A0040E050E0BA0184E60E94BC0263
S113074080E082C28091A600882341F040E050E01E
S1130750BA0184E00E94BC0280E076C28091A500C8
S1130760863061F138F4843009F442C0D0F4813029
S113077059F062C08C3809F448C0843C09F44FC075
S1130780873009F059C027C0409176005091770016
S1130790609178007091790084E60E94BC0280E048
S11307A053C240917E0050917F006091800070910F
S11307B0810084E60E94BC0280E046C2409182002F
S11307C050918300609184007091850084E60E94BA
S11307D0BC0280E039C2409186005091870060914C
S11307E088007091890084E60E94BC0280E02CC2DB
S11307F040917A0050917B0060917C0070917D0063
S113080084E60E94BC0280E01FC240918A0050E04E
S113081060E070E084E60E94BC0280E015C2409172
S11308208B0050918C0060918D0070918E0084E655
S11308300E94BC0280E008C240E050E0BA0184E0BB
S11308400E94BC0280E000C22091A600213009F47D
S1130850F8C118F0223049F054C040E050E0BA0129
S113086083E00E94BC028EE0EFC12091A5002130FC
S1130870C1F018F0223049F13CC021E0672B682B0D
S1130880692B09F420E08091710020FB80F98093AA
S1130890710040E050E0BA0184E60E94BC028EE0A0
S11308A0D3C121E0672B682B692B09F420E08091E8
S11308B0710020FB81F98093710040E050E0BA019F
S11308C084E60E94BC028EE0BFC121E0672B682B46
S11308D0692B09F420E08091710020FB82F9809358
S11308E0710040E050E0BA0184E60E94BC028EE050
S11308F0ABC140E050E0BA0183E00E94BC028EE04C
S1130900A3C140E050E0BA0183E00E94BC028EE043
S11309109BC18091A600813029F030F0823009F427
S113092046C091C18FE090C18091A500813089F0CB
S113093028F08230D1F0833029F131C04091A100F8
S1130940417050E060E070E084E60E94BC0280E008
S11309507BC14091A1004695417050E060E070E099
S113096084E60E94BC0280E06FC14091A10042FB7A
S1130970442740F950E060E070E084E60E94BC0245
S113098080E062C14091A10043FB442740F950E05C
S113099060E070E084E60E94BC0280E055C140E063
S11309A050E0BA0184E00E94BC0280E04DC1809115
S11309B0A500882319F0813061F017C040917100BF
S11309C0417050E060E070E084E60E94BC0280E088
S11309D03BC1409171004695417050E060E070E089
S11309E084E60E94BC0280E02FC140E050E0BA01DE
S11309F084E00E94BC0280E027C180E125C181E13E
S1130A0023C18DE021C12091A600222341F040E0C2
S1130A1050E0BA0184E00E94BC0280E015C120913C
S1130A20A500213451F118F4203441F086C0223459
S1130A3009F443C02C3409F460C07FC000919C00C9
S1130A4010E020E030E0601771078207930769F037
S1130A5060939C00198249812091AC003091AD00D3
S1130A60C901840F911D0E94FD0840E050E0BA01C5
S1130A7084E60E94BC0280E0E7C000919D0010E083
S1130A8020E030E0601771078207930771F06093EC
S1130A909D0021E0298349812091AC003091AD0073
S1130AA0C901840F911D0E94FD0840E050E0BA0185
S1130AB084E60E94BC0280E0C7C000919E0010E062
S1130AC020E030E0601771078207930771F06093AC
S1130AD09E0022E0298349812091AC003091AD0031
S1130AE0C901840F911D0E94FD0840E050E0BA0145
S1130AF084E60E94BC0280E0A7C00091A00010E040
S1130B0020E030E0601771078207930771F060936B
S1130B10A00024E0298349812091AC003091AD00EC
S1130B20C901840F911D0E94FD0840E050E0BA0104
S1130B3084E60E94BC0280E087C040E050E0BA0135
S1130B4084E00E94BC0280E07FC08091A6008823DC
S1130B5041F040E050E0BA0184E00E94BC0280E031
S1130B6073C08091A500813449F018F4803421F1D8
S1130B702DC0823469F08C34A9F028C040919D00C6
S1130B8050E060E070E084E60E94BC0280E05CC05B
S1130B9040919E0050E060E070E084E60E94BC0258
S1130BA080E052C04091A00050E060E070E084E634
S1130BB00E94BC0280E048C040919C0050E060E08C
S1130BC070E084E60E94BC0280E03EC040E050E059
S1130BD0BA0184E00E94BC0280E036C08091A50086
S1130BE081111CC08091AE008093930081E38093B7
S1130BF0940090E39093950022E3209396008093D1
S1130C00970036E5309398008093990020939A00DA
S1130C1090939B000E946C0280E016C040E450E375
S1130C2060E270E184E60E94BC0280E00DC040E016
S1130C3050E0BA0182E00E94BC0280E005C084E07A
S1130C4003C08EE001C080E00F90DF91CF911F912F
S1130C500F910895AF92CF92EF920F9380939300E8
S1130C60609394004093950020939600009397001E
S1130C70E0929800C0929900A0929A000E94740297
S1130C800E946C020F91EF90CF90AF9008959091D5
S1130C906D0080916E00981761F090916E009F5FD7
S1130CA09F70E92FF0E0E85BFE4F808190936E0027
S1130CB0089580E0089590916D009F5F9F70E92FE3
S1130CC0F0E0E85BFE4F808390936D00089590916F
S1130CD06C00E92FF0E0E155FF4F80819F5F909316
S1130CE06C0008958091650080FD0BC080916500C3
S1130CF0816080936500929A10926C000E9467064E
S1130D008CB90895882311F0579A08955798089537
S1130D10882311F0569A0895569808951F920F92B9
S1130D200FB60F9211242F933F934F935F936F93BA
S1130D307F938F939F93AF93BF93EF93FF9385E03C
S1130D40809367008BB190916600892B8093660035
S1130D508CB10E945B06FF91EF91BF91AF919F917F
S1130D608F917F916F915F914F913F912F910F9050
S1130D700FBE0F901F9018951F920F920FB60F92EF
S1130D8011242F933F934F935F936F937F938F938C
S1130D909F93AF93BF93EF93FF938091650080FF80
S1130DA00EC080916C00893038F0809165008E7F90
S1130DB080936500929803C00E9467068CB9FF91E6
S1130DC0EF91BF91AF919F918F917F916F915F91BF
S1130DD04F913F912F910F900FBE0F901F90189538
S1130DE087E089B98AB188618AB981E00E94820664
S1130DF081E00E948806109266000895BF92CF9207
S1130E00DF92EF92FF920F931F93CF93DF93909112
S1130E106A0080916B00981749F18091650080FD0C
S1130E2025C050916B005F5F5F70852F90E09C013F
S1130E30220F331F220F331F220F331F820F931FE2
S1130E40885A9E4F9C01275F3F4FFC01DF01A81B7E
S1130E50B90B4191A155BF4F4C93E217F307B1F77A
S1130E6050936B0010926C000E9472068091650092
S1130E7083FD4BC080916D0090916E00891B8F7033
S1130E80893008F442C0B090680081E08B0D8F7007
S1130E90B82EE82EF12CF701EE0FFF1FEE0FFF1F07
S1130EA0EE0FFF1FEE0DFF1DCF0188549F4F6C0105
S1130EB08C01075F1F4FEC010E9447068993C017FE
S1130EC0D107D1F7F60190E080E02191920F8F5F76
S1130ED08830D9F7F701EE0FFF1FEE0FFF1FEE0F5B
S1130EE0FF1FEE0DFF1DE854FF4F8085981308C0C7
S1130EF080916500886080936500B092680005C0A9
S1130F0080916500806180936500DF91CF911F918E
S1130F100F91FF90EF90DF90CF90BF900895809154
S1130F206700882341F080916700815080936700B7
S1130F3010926400089580916400811107C080912B
S1130F406D0080936E0081E0809364000895809129
S1130F5069008F5F8F7090E09C01220F331F220F76
S1130F60331F220F331F820F931F88549F4F0895FE
S1130F70809169008F5F8F70809369008091680011
S1130F8090916900891B8F7029F490916500977F77
S1130F90909365000895FC0150916A005F5F5F7053
S1130FA0852F90E0DC01AA0FBB1FAA0FBB1FAA0F5D
S1130FB0BB1FA80FB91FA85ABE4F30E020E04081E4
S1130FC04D934191340F2F5F2830C9F7FC01EE0F88
S1130FD0FF1FEE0FFF1FEE0FFF1F8E0F9F1FFC0161
S1130FE0E85AFE4F308750936A00089590E08B30A2
S1130FF0910528F5FC01E65DFF4F0C94E7088FE5A9
S113100089B908958FE389B908958FE289B908955C
S11310108FE189B9089587E189B908958FE089B985
S113102008958BE089B9089587E089B9089583E02C
S113103089B9089582E089B9089519B808958FE2AD
S113104089B9089583E990E00E94CB0708950F932E
S11310501F93CF93DF93CDB7DEB760970FB6F894A5
S1131060DEBF0FBECDBF8C01FB0111821082CB010C
S11310700E942502882381F0CE0101960E94EF018F
S1131080813061F485E0FE013196D80101900D9222
S11310908A95E1F781E003C080E001C080E06096BA
S11310A00FB6F894DEBF0FBECDBFDF91CF911F9175
S11310B00F9108951F920F920FB60F9211248F93E0
S11310C081E0809370008F910F900FBE0F901F905E
S11310D0189580917000882389F0109270000E9406
S11310E08F0780916F00882349F0815080936F00AF
S11310F0811104C098B380E1892788BB0895AF9219
S1131100CF92EF920F938091650083FF3BC00E94C2
S1131110A707DC01E3EAF0E08CEA90E02D9121934B
S1131120E817F907D9F70E94B80780916500877F0F
S1131130809365000E94D702811124C00E94F702A7
S1131140813101F568EE71E08BEF91E00E94270890
S1131150882391F0A090FF01C090FE01E090FD0172
S11311600091FC012091FB0144E66091A200809172
S1131170AE000E942A0606C040E050E0BA018BE0AF
S11311800E94BC020F91EF90CF90AF9008950E94FF
S11311905C020E94F00686EF97E0909361008093D2
S11311A0600082E298E0909363008093620080E1A3
S11311B090E00E9481020E9452020E947100789481
S11311C00E9469080E94FE060E947F08F9CFEE0F74
S11311D0FF1F0590F491E02D0994DC01CB01FC0183
S11311E0E199FECF06C0FFBBEEBBE09A31960DB28B
S11311F00D9241505040B8F70895262FE199FECF43
S11312009FBB8EBBE09A01970DB2021631F02DBB45
S11312100FB6F894E29AE19A0FBE0895DC01CB016F
S113122003C02D910E94190941505040D0F70895F0
S1131230262FE199FECF9FBB8EBB2DBB0FB6F89432
S1111240E29AE19A0FBE01960895F894FFCF4A
S9030000FC
