S01100004C49435F43565F30312E7372656383
S11300000C9435000C9452000C9452000C94520041
S11300100C9452000C9452000C9437090C94520026
S11300200C9452000C9452000C9452000C94520004
S11300300C9452000C946B070C9452000C94990786
S11300400C9452000C9452000C9452000C945200E4
S11300500C945200DC08DF08E208E508E808EB0825
S1130060EE08F108F408F708FA0811241FBECFE5DA
S1130070D8E0DEBFCDBF10E0A0E6B0E0E2EEF4E1F0
S113008002C005900D92A636B107D9F722E0A6E684
S1130090B0E001C01D92A630B207E1F70E940E0A3B
S11300A00C946F0A0C940000CF93C62FC498880F49
S11300B08E770E9434038C2F0E943403C49ACF910C
S11300C00895C498880F8E7780680E94340380E076
S11300D00E943403C49A08956FE081E00E945400A2
S11300E008950E946C006DE88AE20E9454006EE359
S11300F08BE20E9454006EE18CE20E94540060E0A6
S11301008DE20E94540060E485E10E9454006DE396
S113011081E10E94540060E786E20E94540084E179
S11301200E946100982F937029F4682F636084E122
S11301300E94540008953F924F925F926F927F9273
S11301408F929F92AF92BF92CF92DF92EF92FF92E3
S11301500F931F93CF93DF93482EE62EF72E842E12
S1130160722E632E8CE0481631F0EEE04E1661F0EC
S1130170512C312C10C00F2EF0E35F2EF02D0F2EDA
S1130180F7E73F2EF02D07C06894552454F80F2E3E
S1130190F2E13F2EF02D84E00E946100682F6F771A
S11301A084E00E9454008AE00E946100682F606825
S11301B08AE00E94540060E081E00E945400912C87
S11301C0A12CB12C81149104A104B10499F0CE2D79
S11301D0DF2DC12CD12C7601699189E00E94540055
S11301E0FFEFCF1ADF0AEF0AFF0AC814D904EA04A2
S11301F0FB0490F3642D81E00E9454008CE04812CB
S113020008C08DE00E946100682F60688DE00E9444
S1130210540084E00E946100F82EC0E0D0E0E52D97
S1130220E1605E2E0AC084E00E946100F82E2196EF
S1130230CF3CF7E0DF0709F475C08F2D852199F3D2
S11302407BC0832D8170F82211F4C1E001C0C2E0AB
S11302508CE0481280C08AE00E946100882E8CE005
S11302600E946100282F2770E9F0882D90E0019703
S1130270AA2797FDA095BA2F880F991FAA1FBB1F05
S1130280880F991FAA1FBB1F880F991FAA1FBB1F86
S1130290820F911DA11DB11DF80180839183A2835A
S11302A0B38315C0482D50E060E070E0440F551F43
S11302B0661F771F440F551F661F771F440F551F76
S11302C0661F771FF8014083518362837383811013
S11302D00AC0812C912C54018394072D162DC12C16
S11302E0D12C76010EC0882D813108F080E1882E52
S11302F0912CA12CB12C81149104A104B10469F7AF
S11303002AC089E00E946100F80181938F01FFEF08
S1130310CF1ADF0AEF0AFF0AC814D904EA04FB045F
S113032080F319C08DE00E946100682F6F778DE023
S11303300E945400C3E00FC08DE00E946100682F4A
S11303406F778DE00E94540086E00E9461008B71FB
S113035009F477CFC3E08C2FDF91CF911F910F91D8
S1130360FF90EF90DF90CF90BF90AF909F908F90D1
S11303707F906F905F904F903F900895EF92FF921F
S11303800F931F93CF93DF9300D000D0CDB7DEB788
S1130390182F7B0167E08DE00E945400F701108361
S11303A08E010F5F1F4F970141E0B7018CE00E945F
S11303B09B00813051F449815A816B817C814031A9
S11303C051056105710519F403C083E001C083E0A0
S11303D00F900F900F900F90DF91CF911F910F917D
S11303E0FF90EF900895EF92FF920F931F93CF9396
S11303F0DF9300D000D0CDB7DEB77C0160E08DE0A4
S11304000E94540083E9F701808380E281838E0196
S11304100F5F1F4F970142E0B7018CE00E949B00E1
S1130420813061F4F70120E090E0319123279F5F50
S11304309430D9F7F7019481291383E00F900F903A
S11304400F900F90DF91CF911F910F91FF90EF903C
S11304500895CF93DF93C82FD62F0E946100682F91
S11304606D2B8C2F0E945400DF91CF910895CF9370
S1130470DF93C82FD62F0E946100D095682F6D237B
S11304808C2F0E945400DF91CF910895DF92EF9258
S1130490FF920F931F93CF93DF93D82EF92EE62E5E
S11304A08A0164E085E00E94370260E88AE00E94E5
S11304B02902EE2051F0CD2DDF2DF12C699189E038
S11304C00E945400F394FE10F9CF63E081E00E948F
S11304D0540085E00E946100CEEF05C085E00E94D3
S11304E06100C15011F082FFF9CF82E20E946100E5
S11304F0F801808381E20E946100F8018183DF9129
S1130500CF911F910F91FF90EF90DF9008950F937B
S11305101F93CF93DF93CDB7DEB728970FB6F89428
S1130520DEBF0FBECDBF80E58D831E82AE01495F65
S11305305F4F62E0CE0105960E94460268E088E0C3
S11305400E9437028E010F5F1F4F9E012B5F3F4FAA
S113055044E0B9018CE00E949B0028960FB6F89401
S1130560DEBF0FBECDBFDF91CF911F910F910895D4
S11305700F931F93CF93DF93CDB7DEB760970FB67A
S1130580F894DEBF0FBECDBF8C01BE016F5F7F4FFD
S113059086E20E94BE01813061F4898190E0982F47
S11305A088272A81820F911DF8019183808381E03D
S11305B001C080E060960FB6F894DEBF0FBECDBFD9
S11305C0DF91CF911F910F9108950F931F93CF93B4
S11305D0DF93CDB7DEB760970FB6F894DEBF0FBEDA
S11305E0CDBF8D836E83A42FB52FFE013796CE0128
S11305F00D964D914193E817F907D9F7A22FB32F20
S1130600FE013D9685E090E08C0F9D1F0C962D9188
S11306102193E817F907D9F78E010F5F1F4F9E0149
S11306202B5F3F4F4CE0B9018EE00E949B00182FD6
S113063087E00E946100113019F483FF03C003C0F6
S113064013E001C013E0812F60960FB6F894DEBF6B
S11306500FBECDBFDF91CF911F910F91089580EB15
S113066087BB81E58DB908958FB9779BFECF8FB194
S113067008951BBC1ABC19BC18BC8FE392E097BD4B
S113068086BD82EA8FBD8CE18EBD89B7806289BF49
S11306900895E0916800F0916900309709F0099598
S11306A00895E9E9F0E081EA90E020E03191230F38
S11306B0E817F907D9F72093A1000895CF93DF93A2
S11306C0EC019093B3008093B20045E050E0BC018C
S11306D082EA90E00E94370A8091A2008134A9F056
S11306E082E48093A20084E08093A30083E080935B
S11306F0A4001092A50082E08093A60045E050E09B
S1130700BE0182EA90E00E94580AE0916600F091EE
S11307106700309719F08091A30009958091A60095
S11307208093B4008091A4008093A800DF91CF91BE
S113073008959091B400909399009091A80090939B
S11307409A0080939B008091AA0080939C007093F0
S11307509D0060939E0050939F004093A0000E94D0
S113076051030E94490308959091A9008091A80023
S1130770981316C0E9EAF0E081EB90E020E03191B3
S1130780230FE817F907D9F78091B100281751F022
S113079040E050E0BA0181E00E94990383E00895AB
S11307A082E0089580E008950F931F93CF93DF9321
S11307B01F92CDB7DEB72091AD006091AE00862FB9
S11307C090E0A0E0B0E0DC0199278827B22B2091CB
S11307D0B000822B2091AF00BC01CD01722B60933D
S11307E095007093960080939700909398002091C1
S11307F0AA002A3009F486C288F4243009F4FCC221
S113080028F4213019F1223049F1EEC2263009F4DE
S113081076C060F1293009F4D3C1E6C2203109F46D
S1130820C9C148F42E3009F4ECC008F04FC12D3092
S113083009F4C4C1D9C2283809F4ADC22E3F21F04D
S1130840213109F0D1C2B8C18EEFDBC240E050E0E3
S1130850BA0184E60E94990381E0D3C240E050E0EB
S1130860BA0184E60E94990382E0CBC22091AC00D5
S1130870222341F040E050E0BA0184E00E94990351
S113088080E0BFC22091AB002630E9F028F4243088
S113089041F0253079F02BC02730F1F02C3829F1C4
S11308A026C06093800070938100809382009093AF
S11308B083001DC06093840070938500809386003C
S11308C09093870014C0609388007093890080938C
S11308D08A0090938B000BC060938C0070938D0002
S11308E080938E0090938F0002C06093900040E04C
S11308F050E0BA0184E60E94990380E082C28091AC
S1130900AC00882341F040E050E0BA0184E00E944A
S1130910990380E076C28091AB00863061F138F4AF
S1130920843009F442C0D0F4813059F062C08C386C
S113093009F448C0843C09F44FC0873009F059C019
S113094027C040917C0050917D0060917E007091A1
S11309507F0084E60E94990380E053C240918400A2
S113096050918500609186007091870084E60E9412
S1130970990380E046C240918800509189006091BB
S11309808A0070918B0084E60E94990380E039C24A
S113099040918C0050918D0060918E0070918F0079
S11309A084E60E94990380E02CC24091800050911B
S11309B08100609182007091830084E60E94990313
S11309C080E01FC24091900050E060E070E084E657
S11309D00E94990380E015C24091910050919200C9
S11309E0609193007091940084E60E94990380E0E2
S11309F008C240E050E0BA0184E00E94990380E01C
S1130A0000C22091AC00213009F4F8C118F0223062
S1130A1049F054C040E050E0BA0183E00E949903D9
S1130A208EE0EFC12091AB002130C1F018F02230EC
S1130A3049F13CC021E0672B682B692B09F420E0C5
S1130A408091770020FB80F98093770040E050E0AC
S1130A50BA0184E60E9499038EE0D3C121E0672B9A
S1130A60682B692B09F420E08091770020FB81F941
S1130A708093770040E050E0BA0184E60E94990335
S1130A808EE0BFC121E0672B682B692B09F420E0BD
S1130A908091770020FB82F98093770040E050E05A
S1130AA0BA0184E60E9499038EE0ABC140E050E0B5
S1130AB0BA0183E00E9499038EE0A3C140E050E0B4
S1130AC0BA0183E00E9499038EE09BC18091AC003F
S1130AD0813029F030F0823009F446C091C18FE0B2
S1130AE090C18091AB00813089F028F08230D1F040
S1130AF0833029F131C04091A700417050E060E09B
S1130B0070E084E60E94990380E07BC14091A700D5
S1130B104695417050E060E070E084E60E949903DD
S1130B2080E06FC14091A70042FB442740F950E0A8
S1130B3060E070E084E60E94990380E062C1409125
S1130B40A70043FB442740F950E060E070E084E6EE
S1130B500E94990380E055C140E050E0BA0184E06E
S1130B600E94990380E04DC18091AB00882319F065
S1130B70813061F017C040917700417050E060E02F
S1130B8070E084E60E94990380E03BC140917700C5
S1130B904695417050E060E070E084E60E9499035D
S1130BA080E02FC140E050E0BA0184E00E94990344
S1130BB080E027C180E125C181E123C18DE021C10D
S1130BC02091AC00222341F040E050E0BA0184E0DF
S1130BD00E94990380E015C12091AB00213451F1AA
S1130BE018F4203441F086C0223409F443C02C3474
S1130BF009F460C07FC00091A20010E020E030E062
S1130C00601771078207930769F06093A200198245
S1130C1049812091B2003091B300C901840F911D24
S1130C200E94470A40E050E0BA0184E60E9499031A
S1130C3080E0E7C00091A30010E020E030E06017FE
S1130C4071078207930771F06093A30021E0298361
S1130C5049812091B2003091B300C901840F911DE4
S1130C600E94470A40E050E0BA0184E60E949903DA
S1130C7080E0C7C00091A40010E020E030E06017DD
S1130C8071078207930771F06093A40022E029831F
S1130C9049812091B2003091B300C901840F911DA4
S1130CA00E94470A40E050E0BA0184E60E9499039A
S1130CB080E0A7C00091A60010E020E030E06017BB
S1130CC071078207930771F06093A60024E02983DB
S1130CD049812091B2003091B300C901840F911D64
S1130CE00E94470A40E050E0BA0184E60E9499035A
S1130CF080E087C040E050E0BA0184E00E9499039C
S1130D0080E07FC08091AC00882341F040E050E057
S1130D10BA0184E00E94990380E073C08091AB0023
S1130D20813449F018F4803421F12DC0823469F003
S1130D308C34A9F028C04091A30050E060E070E03A
S1130D4084E60E94990380E05CC04091A40050E0D6
S1130D5060E070E084E60E94990380E052C0409114
S1130D60A60050E060E070E084E60E94990380E011
S1130D7048C04091A20050E060E070E084E60E9428
S1130D80990380E03EC040E050E0BA0184E00E9454
S1130D90990380E036C08091AB0081111CC0809122
S1130DA0B4008093990081E380939A0090E3909338
S1130DB09B0022E320939C0080939D0036E53093B2
S1130DC09E0080939F002093A0009093A1000E9416
S1130DD0490380E016C040E450E360E270E184E639
S1130DE00E94990380E00DC040E050E0BA0182E027
S1130DF00E94990380E005C084E003C08EE001C036
S1130E0080E00F90DF91CF911F910F910895AF92E1
S1130E10CF92EF920F938093990060939A0040933E
S1130E209B0020939C0000939D00E0929E00C09242
S1130E309F00A092A0000E9451030E9449030F91B9
S1130E40EF90CF90AF9008959091730080917400CB
S1130E50981761F0909174009F5F9F70E92FF0E004
S1130E60E25BFE4F808190937400089580E00895C2
S1130E70909173009F5F9F70E92FF0E0E25BFE4F5B
S1130E80808390937300089590917200E92FF0E0AD
S1130E90EB54FF4F80819F5F90937200089580917F
S1130EA06B0080FD0BC080916B00816080936B00B0
S1130EB0929A109272000E9444078CB90895882374
S1130EC011F0579A089557980895882311F0569A67
S1130ED00895569808951F920F920FB60F921124F9
S1130EE02F933F934F935F936F937F938F939F932E
S1130EF0AF93BF93EF93FF9385E080936D008BB125
S1130F0090916C00892B80936C008CB10E943807FF
S1130F10FF91EF91BF91AF919F918F917F916F91CD
S1130F205F914F913F912F910F900FBE0F901F90A3
S1130F3018951F920F920FB60F9211242F933F937F
S1130F404F935F936F937F938F939F93AF93BF93CD
S1130F50EF93FF9380916B0080FF0EC0809172002D
S1130F60893038F080916B008E7F80936B0092986B
S1130F7003C00E9444078CB9FF91EF91BF91AF91D8
S1130F809F918F917F916F915F914F913F912F919D
S1130F900F900FBE0F901F90189587E089B98AB102
S1130FA088618AB981E00E945F0781E00E94650739
S1130FB010926C000895BF92CF92DF92EF92FF924D
S1130FC00F931F93CF93DF939091700080917100E2
S1130FD0981749F180916B0080FD25C050917100F4
S1130FE05F5F5F70852F90E09C01220F331F220FFB
S1130FF0331F220F331F820F931F825A9E4F9C016F
S1131000275F3F4FFC01DF01A81BB90B4191AB5493
S1131010BF4F4C93E217F307B1F75093710010924E
S113102072000E944F0780916B0083FD4BC080913A
S1131030730090917400891B8F70893008F442C04A
S1131040B0906E0081E08B0D8F70B82EE82EF12CDD
S1131050F701EE0FFF1FEE0FFF1FEE0FFF1FEE0D48
S1131060FF1DCF0182549F4F6C018C01075F1F4FFE
S1131070EC010E9424078993C017D107D1F7F60128
S113108090E080E02191920F8F5F8830D9F7F701CB
S1131090EE0FFF1FEE0FFF1FEE0FFF1FEE0DFF1DE4
S11310A0E254FF4F8085981308C080916B008860DC
S11310B080936B00B0926E0005C080916B008061DC
S11310C080936B00DF91CF911F910F91FF90EF9070
S11310D0DF90CF90BF90089580916D00882341F0F8
S11310E080916D00815080936D0010926A00089584
S11310F080916A00811107C080917300809374000D
S113110081E080936A00089580916F008F5F8F70F3
S113111090E09C01220F331F220F331F220F331F35
S1131120820F931F82549F4F089580916F008F5FA9
S11311308F7080936F0080916E0090916F00891B77
S11311408F7029F490916B00977F90936B000895B2
S1131150FC01509170005F5F5F70852F90E0DC01AF
S1131160AA0FBB1FAA0FBB1FAA0FBB1FA80FB91F33
S1131170A25ABE4F30E020E040814D934191340F9C
S11311802F5F2830C9F7FC01EE0FFF1FEE0FFF1F82
S1131190EE0FFF1F8E0F9F1FFC01E25AFE4F308798
S11311A050937000089590E08B30910528F5FC0170
S11311B0E65DFF4F0C94310A8FE589B908958FE3FA
S11311C089B908958FE289B908958FE189B908959D
S11311D087E189B908958FE089B908958BE089B9C9
S11311E0089587E089B9089583E089B9089582E074
S11311F089B9089519B808958FE289B9089589E9DC
S113120090E00E94A80808950F931F93CF93DF9353
S1131210CDB7DEB760970FB6F894DEBF0FBECDBF73
S11312208C01FB0111821082CB010E94B802882339
S113123081F0CE0101960E94F301813061F485E0D2
S1131240FE013196D80101900D928A95E1F781E073
S113125003C080E001C080E060960FB6F894DEBF62
S11312600FBECDBFDF91CF911F910F9108951F92B3
S11312700F920FB60F9211248F9381E08093760022
S11312808F910F900FBE0F901F901895809176004C
S1131290882381F0109276000E946C08809175007A
S11312A0882341F0815080937500811103C08BB372
S11312B080588BBB0895AF92CF92EF920F93809199
S11312C06B0083FFA6C00E948408DC01E9EAF0E019
S11312D082EB90E02D912193E817F907D9F70E944A
S11312E0950880916B00877F80936B000E94B40304
S11312F081118FC00E94D403813109F08AC080918A
S1131300AB00813089F120F0823009F458C081C0EB
S11313106EEE71E081E092E00E9404098823E9F016
S1131320A0900502C0900402E09003020091020222
S11313302091010244E66091A8008091B4000E94CB
S113134007070E9487022FEF8FE794E02150804027
S11313509040E1F700C000005CC040E050E0BA01FA
S11313608BE00E94990355C06EEE71E081E092E03B
S11313700E9404098823E1F021E032E040E650E0D5
S11313806091AC0080E60E94E5028093000240E098
S113139050E0BA010E9499030E9487022FEF8FE761
S11313A094E0215080409040E1F700C0000031C03B
S11313B040E050E0BA018BE00E9499032AC06EEE2F
S11313C071E081E092E00E9404098823E1F021E0C9
S11313D032E040E650E06091AC0080E60E94E50215
S11313E08093000240E050E0BA010E9499030E94F9
S11313F087022FEF8FE794E0215080409040E1F77F
S113140000C0000006C040E050E0BA018BE00E943A
S113141099030F91EF90CF90AF90089580EE8ABB1F
S11314208A9A0E9439030E94CD0783ED98E0909335
S11314306700809366008FEF98E090936900809333
S1131440680080E190E00E945E030E942F030E94E6
S1131450710078940E9446090E94DB070E945B0990
S1131460F9CFEE0FFF1F0590F491E02D0994DC01F4
S1131470CB01FC01E199FECF06C0FFBBEEBBE09AB5
S113148031960DB20D9241505040B8F70895262F71
S1131490E199FECF9FBB8EBBE09A01970DB2021675
S11314A031F02DBB0FB6F894E29AE19A0FBE08957D
S11314B0DC01CB0103C02D910E94630A41505040CE
S11314C0D0F70895262FE199FECF9FBB8EBB2DBB8D
S11314D00FB6F894E29AE19A0FBE01960895F89433
S10514E0FFCF38
S10914E2FFFFFFFFFFFF06
S9030000FC
